{
  "abi": [
    {
      "inputs": [
        {
          "internalType": "address",
          "name": "mailbox",
          "type": "address"
        },
        {
          "internalType": "address",
          "name": "selfKisser",
          "type": "address"
        },
        {
          "internalType": "address[]",
          "name": "_tokens",
          "type": "address[]"
        },
        {
          "internalType": "address[]",
          "name": "_oracles",
          "type": "address[]"
        },
        {
          "internalType": "uint256[]",
          "name": "_chains",
          "type": "uint256[]"
        }
      ],
      "stateMutability": "nonpayable",
      "type": "constructor"
    },
    {
      "inputs": [
        {
          "internalType": "uint256",
          "name": "sourceId",
          "type": "uint256"
        },
        {
          "internalType": "uint256",
          "name": "amountIn",
          "type": "uint256"
        },
        {
          "internalType": "uint256",
          "name": "amountOut",
          "type": "uint256"
        },
        {
          "internalType": "address",
          "name": "fromToken",
          "type": "address"
        },
        {
          "internalType": "address",
          "name": "toToken",
          "type": "address"
        },
        {
          "internalType": "uint32",
          "name": "fromChain",
          "type": "uint32"
        },
        {
          "internalType": "uint32",
          "name": "toChain",
          "type": "uint32"
        },
        {
          "internalType": "uint256",
          "name": "deadline",
          "type": "uint256"
        },
        {
          "internalType": "uint256",
          "name": "maxSlippage",
          "type": "uint256"
        }
      ],
      "name": "bridge",
      "outputs": [],
      "stateMutability": "nonpayable",
      "type": "function"
    },
    {
      "inputs": [
        {
          "internalType": "uint256",
          "name": "",
          "type": "uint256"
        }
      ],
      "name": "chains",
      "outputs": [
        {
          "internalType": "uint256",
          "name": "",
          "type": "uint256"
        }
      ],
      "stateMutability": "view",
      "type": "function"
    },
    {
      "inputs": [
        {
          "internalType": "uint256",
          "name": "orderSourceId",
          "type": "uint256"
        }
      ],
      "name": "defaultToBridge",
      "outputs": [],
      "stateMutability": "view",
      "type": "function"
    },
    {
      "inputs": [
        {
          "internalType": "uint32",
          "name": "_origin",
          "type": "uint32"
        },
        {
          "internalType": "bytes32",
          "name": "",
          "type": "bytes32"
        },
        {
          "internalType": "bytes",
          "name": "_body",
          "type": "bytes"
        }
      ],
      "name": "handle",
      "outputs": [],
      "stateMutability": "payable",
      "type": "function"
    },
    {
      "inputs": [
        {
          "internalType": "uint256",
          "name": "",
          "type": "uint256"
        }
      ],
      "name": "pendingIncomingOrders",
      "outputs": [
        {
          "internalType": "uint256",
          "name": "sourceId",
          "type": "uint256"
        },
        {
          "internalType": "address",
          "name": "sender",
          "type": "address"
        },
        {
          "internalType": "uint256",
          "name": "amountIn",
          "type": "uint256"
        },
        {
          "internalType": "uint256",
          "name": "amountOut",
          "type": "uint256"
        },
        {
          "internalType": "address",
          "name": "fromToken",
          "type": "address"
        },
        {
          "internalType": "address",
          "name": "toToken",
          "type": "address"
        },
        {
          "internalType": "uint32",
          "name": "fromChain",
          "type": "uint32"
        },
        {
          "internalType": "uint32",
          "name": "toChain",
          "type": "uint32"
        },
        {
          "internalType": "uint256",
          "name": "deadline",
          "type": "uint256"
        },
        {
          "internalType": "uint256",
          "name": "maxSlippage",
          "type": "uint256"
        },
        {
          "internalType": "bool",
          "name": "filled",
          "type": "bool"
        }
      ],
      "stateMutability": "view",
      "type": "function"
    },
    {
      "inputs": [
        {
          "internalType": "uint256",
          "name": "sourceId",
          "type": "uint256"
        }
      ],
      "name": "removePendingOrder",
      "outputs": [],
      "stateMutability": "nonpayable",
      "type": "function"
    }
  ],
  "bytecode": {
    "object": "0x60a0604052600480546001600160a01b031916738f9c3888bfc8a5b25aed115a82ecbb788b196d2a1790553480156200003757600080fd5b506040516200241b3803806200241b8339810160408190526200005a9162000399565b8151835114620000a25760405162461bcd60e51b815260206004820152600f60248201526e098cadccee8d040dad2e6dac2e8c6d608b1b604482015260640160405180910390fd5b6001600160a01b0385166080528051620000c49060039060208401906200022a565b5060005b82518110156200017857846001600160a01b031663622920e7848381518110620000f657620000f6620004ac565b60209081029190910101516040516001600160e01b031960e084901b1681526001600160a01b039091166004820152306024820152604401600060405180830381600087803b1580156200014957600080fd5b505af11580156200015e573d6000803e3d6000fd5b5050505080806200016f90620004c2565b915050620000c8565b5060005b83518110156200021e578281815181106200019b576200019b620004ac565b602002602001015160026000868481518110620001bc57620001bc620004ac565b60200260200101516001600160a01b03166001600160a01b0316815260200190815260200160002060006101000a8154816001600160a01b0302191690836001600160a01b0316021790555080806200021590620004c2565b9150506200017c565b505050505050620004ea565b82805482825590600052602060002090810192821562000268579160200282015b82811115620002685782518255916020019190600101906200024b565b50620002769291506200027a565b5090565b5b808211156200027657600081556001016200027b565b80516001600160a01b0381168114620002a957600080fd5b919050565b634e487b7160e01b600052604160045260246000fd5b604051601f8201601f191681016001600160401b0381118282101715620002ef57620002ef620002ae565b604052919050565b60006001600160401b03821115620003135762000313620002ae565b5060051b60200190565b600082601f8301126200032f57600080fd5b81516020620003486200034283620002f7565b620002c4565b82815260059290921b840181019181810190868411156200036857600080fd5b8286015b848110156200038e57620003808162000291565b83529183019183016200036c565b509695505050505050565b600080600080600060a08688031215620003b257600080fd5b620003bd8662000291565b94506020620003ce81880162000291565b60408801519095506001600160401b0380821115620003ec57600080fd5b620003fa8a838b016200031d565b955060608901519150808211156200041157600080fd5b6200041f8a838b016200031d565b945060808901519150808211156200043657600080fd5b508701601f810189136200044957600080fd5b80516200045a6200034282620002f7565b81815260059190911b8201830190838101908b8311156200047a57600080fd5b928401925b828410156200049a578351825292840192908401906200047f565b80955050505050509295509295909350565b634e487b7160e01b600052603260045260246000fd5b600060018201620004e357634e487b7160e01b600052601160045260246000fd5b5060010190565b608051611f0e6200050d6000396000818161068f01526114c00152611f0e6000f3fe6080604052600436106100555760003560e01c80632805f8411461005a5780634490899d146100ed5780635042b11a1461010f578063550325b51461012f57806356d5d4751461015d578063830055ae14610170575b600080fd5b34801561006657600080fd5b5061007a61007536600461176b565b610190565b604080519b8c526001600160a01b039a8b1660208d01528b019890985260608a019690965293871660808901529590911660a087015263ffffffff90811660c087015290931660e08501526101008401929092526101208301919091521515610140820152610160015b60405180910390f35b3480156100f957600080fd5b5061010d61010836600461176b565b610216565b005b34801561011b57600080fd5b5061010d61012a36600461176b565b610275565b34801561013b57600080fd5b5061014f61014a36600461176b565b610663565b6040519081526020016100e4565b61010d61016b36600461179d565b610684565b34801561017c57600080fd5b5061010d61018b36600461183b565b610ae4565b600081815481106101a057600080fd5b60009182526020909120600b90910201805460018201546002830154600384015460048501546005860154600687015460078801546008909801549698506001600160a01b039586169794969395928316949282169363ffffffff600160a01b8404811694600160c01b90940416929060ff168b565b60008181548110610229576102296118c0565b600091825260209091206008600b90920201015460ff161580156102705750426000828154811061025c5761025c6118c0565b90600052602060002090600b020160060154115b505b50565b60005481106102c15760405162461bcd60e51b8152602060048201526013602482015272496e646578206f7574206f6620626f756e647360681b60448201526064015b60405180910390fd5b60008082815481106102d5576102d56118c0565b90600052602060002090600b0201905060008290505b6000546102fa906001906118ec565b81101561047557600061030e8260016118ff565b8154811061031e5761031e6118c0565b90600052602060002090600b02016000828154811061033f5761033f6118c0565b600091825260209091208254600b9092020190815560018083015490820180546001600160a01b039283166001600160a01b03199182161790915560028085015490840155600380850154908401556004808501549084018054918416918316919091179055600580850180549185018054929094169282168317845580546001600160c01b0319909216909217600160a01b9182900463ffffffff90811690920217808455915463ffffffff60c01b19909216600160c01b928390049091169091021790556006808301549082015560078083015490820155600880830154908201805460ff191660ff9092161515919091179055600980830180546104499284019190611658565b50600a828101805461045e9284019190611658565b50905050808061046d90611912565b9150506102eb565b5060008054829190610489906001906118ec565b81548110610499576104996118c0565b600091825260209091208254600b9092020190815560018083015490820180546001600160a01b039283166001600160a01b03199182161790915560028085015490840155600380850154908401556004808501549084018054918416918316919091179055600580850180549185018054929094169282168317845580546001600160c01b0319909216909217600160a01b9182900463ffffffff90811690920217808455915463ffffffff60c01b19909216600160c01b928390049091169091021790556006808301549082015560078083015490820155600880830154908201805460ff191660ff9092161515919091179055600980830180546105a39284019190611658565b50600a82810180546105b89284019190611658565b5090505060008054806105cd576105cd61192b565b600082815260208120600b600019909301928302018181556001810180546001600160a01b0319908116909155600282018390556003820183905560048201805490911690556005810180546001600160e01b0319169055600681018290556007810182905560088101805460ff191690559061064d60098301826116a8565b61065b600a830160006116a8565b505090555050565b6003818154811061067357600080fd5b600091825260209091200154905081565b336001600160a01b037f000000000000000000000000000000000000000000000000000000000000000016146106eb5760405162461bcd60e51b815260206004820152600c60248201526b09edcd8f2409ac2d2d8c4def60a31b60448201526064016102b8565b60006106f982840184611abc565b905060005b8151811015610adc57818181518110610719576107196118c0565b6020026020010151610140015115156001151514801561076157508563ffffffff1682828151811061074d5761074d6118c0565b602002602001015160e0015163ffffffff16145b1561095d5760005b82828151811061077b5761077b6118c0565b60200260200101516101600151518110156109315760008383815181106107a4576107a46118c0565b6020026020010151610180015182815181106107c2576107c26118c0565b602002602001015111156108e2578282815181106107e2576107e26118c0565b6020026020010151608001516001600160a01b031663a9059cbb84848151811061080e5761080e6118c0565b60200260200101516101600151838151811061082c5761082c6118c0565b6020026020010151858581518110610846576108466118c0565b602002602001015161018001518481518110610864576108646118c0565b60200260200101516040518363ffffffff1660e01b815260040161089d9291906001600160a01b03929092168252602082015260400190565b6020604051808303816000875af11580156108bc573d6000803e3d6000fd5b505050506040513d601f19601f820116820180604052508101906108e09190611c6b565b505b8282815181106108f4576108f46118c0565b602002602001015161018001518181518110610912576109126118c0565b602002602001016000815250808061092990611912565b915050610769565b50610958828281518110610947576109476118c0565b602002602001015160000151610275565b610aca565b6000548251839083908110610974576109746118c0565b602002602001015160000181815250506000828281518110610998576109986118c0565b6020908102919091018101518254600180820185556000948552938390208251600b909202019081558183015193810180546001600160a01b03199081166001600160a01b03968716179091556040830151600283015560608301516003830155608083015160048301805490921690861617905560a082015160058201805460c085015160e0860151939097166001600160c01b031990911617600160a01b63ffffffff978816021763ffffffff60c01b1916600160c01b9690921695909502179093556101008101516006840155610120810151600784015561014081015160088401805460ff19169115159190911790556101608101518051919392610aa9926009850192909101906116c6565b506101808201518051610ac691600a84019160209091019061171b565b5050505b80610ad481611912565b9150506106fe565b505050505050565b604080516101a0810182528a8152336020808301919091528183018b9052606082018a90526001600160a01b038981166080840190815289821660a085015263ffffffff89811660c0860152881660e085015261010084018790526101208401869052600061014085018190528551818152808501875261016086015285518181528085018752610180860152905182168152600283528481205485516315f789a960e21b81529551949591949216926357de26a4926004808401938290030181865afa158015610bb9573d6000803e3d6000fd5b505050506040513d601f19601f82011682018060405250810190610bdd9190611c8f565b60a08301516001600160a01b0390811660009081526002602090815260408083205481516315f789a960e21b81529151959650929492909316926357de26a492600480830193928290030181865afa158015610c3d573d6000803e3d6000fd5b505050506040513d601f19601f82011682018060405250810190610c619190611c8f565b90508260a001516001600160a01b031683608001516001600160a01b031614610ca95780836040015183610c959190611ca8565b610c9f9190611cbf565b6060840152610cb4565b604083015160608401525b60005b60035481101561149257606060005b600054811015611384576000848660008481548110610ce757610ce76118c0565b90600052602060002090600b020160020154610d039190611ca8565b610d0d9190611cbf565b90508060008381548110610d2357610d236118c0565b90600052602060002090600b0201600301541015610da45760008160008481548110610d5157610d516118c0565b90600052602060002090600b020160030154610d6d91906118ec565b905060008381548110610d8257610d826118c0565b90600052602060002090600b020160070154811115610da2575050611372565b505b8660a001516001600160a01b031660008381548110610dc557610dc56118c0565b600091825260209091206004600b9092020101546001600160a01b0316148015610e2a575086608001516001600160a01b031660008381548110610e0b57610e0b6118c0565b600091825260209091206005600b9092020101546001600160a01b0316145b8015610e7257508660e0015163ffffffff1660008381548110610e4f57610e4f6118c0565b60009182526020909120600b9091020160050154600160a01b900463ffffffff16145b8015610eba57508660c0015163ffffffff1660008381548110610e9757610e976118c0565b60009182526020909120600b9091020160050154600160c01b900463ffffffff16145b8015610eed575060008281548110610ed457610ed46118c0565b600091825260209091206008600b90920201015460ff16155b8015610f1c57504260008381548110610f0857610f086118c0565b90600052602060002090600b020160060154105b8015610f77575060038481548110610f3657610f366118c0565b906000526020600020015460008381548110610f5457610f546118c0565b60009182526020909120600b9091020160050154600160a01b900463ffffffff16145b15611370576000610fb0886040015160008581548110610f9957610f996118c0565b90600052602060002090600b0201600301546114a1565b90506000610fe6896060015160008681548110610fcf57610fcf6118c0565b90600052602060002090600b0201600201546114a1565b905088608001516001600160a01b03166323b872dd336000878154811061100f5761100f6118c0565b60009182526020909120600b909102016001015460405160e084901b6001600160e01b03191681526001600160a01b03928316600482015291166024820152604481018590526064016020604051808303816000875af1158015611077573d6000803e3d6000fd5b505050506040513d601f19601f8201168201806040525081019061109b9190611c6b565b5081896040018181516110ae91906118ec565b9052506060890180518291906110c59083906118ec565b90525060008054859081106110dc576110dc6118c0565b600091825260208083206009600b909302019190910180546001810182559083529082200180546001600160a01b03191633179055805485908110611123576111236118c0565b60009182526020808320600a600b909302019190910180546001810182559083529082200183905580548590811061115d5761115d6118c0565b90600052602060002090600b02016002015460001480156111a257506000848154811061118c5761118c6118c0565b90600052602060002090600b0201600301546000145b1561136d576001600085815481106111bc576111bc6118c0565b600091825260208220600b9190910201600801805460ff1916921515929092179091558054859081106111f1576111f16118c0565b6000918252602091829020604080516101a081018252600b9093029091018054835260018101546001600160a01b039081168486015260028201548484015260038201546060850152600482015481166080850152600582015490811660a085015263ffffffff600160a01b8204811660c0860152600160c01b9091041660e084015260068101546101008401526007810154610120840152600881015460ff16151561014084015260098101805483518187028101870190945280845293949193610160860193928301828280156112f357602002820191906000526020600020905b81546001600160a01b031681526001909101906020018083116112d5575b50505050508152602001600a820180548060200260200160405190810160405280929190818152602001828054801561134b57602002820191906000526020600020905b815481526020019060010190808311611337575b50505091909252505086518791506113616118c0565b60200260200101819052505b50505b505b8061137c81611912565b915050610cc6565b5060038281548110611398576113986118c0565b90600052602060002001548560e0015163ffffffff160361146d578461014001511580156113c95750604085015115155b1561145357608085015160408087015190516323b872dd60e01b815233600482015230602482015260448101919091526001600160a01b03909116906323b872dd906064016020604051808303816000875af115801561142d573d6000803e3d6000fd5b505050506040513d601f19601f820116820180604052508101906114519190611c6b565b505b8051859082906114616118c0565b60200260200101819052505b80511561147f5761147d816114bb565b505b508061148a81611912565b915050610cb7565b50505050505050505050505050565b60008183106114b057816114b2565b825b90505b92915050565b6000807f00000000000000000000000000000000000000000000000000000000000000006001600160a01b031663fa31de0184600081518110611500576115006118c0565b602002602001015160e0015161151c306001600160a01b031690565b8660405160200161152d9190611d55565b6040516020818303038152906040526040518463ffffffff1660e01b815260040161155a93929190611e75565b6020604051808303816000875af1158015611579573d6000803e3d6000fd5b505050506040513d601f19601f8201168201806040525081019061159d9190611c8f565b60045484519192506001600160a01b0316906311bf2c18903490849087906000906115ca576115ca6118c0565b602002602001015160e0015162030d40336040518663ffffffff1660e01b815260040161161f949392919093845263ffffffff92909216602084015260408301526001600160a01b0316606082015260800190565b6000604051808303818588803b15801561163857600080fd5b505af115801561164c573d6000803e3d6000fd5b50939695505050505050565b8280548282559060005260206000209081019282156116985760005260206000209182015b8281111561169857825482559160010191906001019061167d565b506116a4929150611756565b5090565b50805460008255906000526020600020908101906102729190611756565b828054828255906000526020600020908101928215611698579160200282015b8281111561169857825182546001600160a01b0319166001600160a01b039091161782556020909201916001909101906116e6565b828054828255906000526020600020908101928215611698579160200282015b8281111561169857825182559160200191906001019061173b565b5b808211156116a45760008155600101611757565b60006020828403121561177d57600080fd5b5035919050565b803563ffffffff8116811461179857600080fd5b919050565b600080600080606085870312156117b357600080fd5b6117bc85611784565b935060208501359250604085013567ffffffffffffffff808211156117e057600080fd5b818701915087601f8301126117f457600080fd5b81358181111561180357600080fd5b88602082850101111561181557600080fd5b95989497505060200194505050565b80356001600160a01b038116811461179857600080fd5b60008060008060008060008060006101208a8c03121561185a57600080fd5b8935985060208a0135975060408a0135965061187860608b01611824565b955061188660808b01611824565b945061189460a08b01611784565b93506118a260c08b01611784565b925060e08a013591506101008a013590509295985092959850929598565b634e487b7160e01b600052603260045260246000fd5b634e487b7160e01b600052601160045260246000fd5b818103818111156114b5576114b56118d6565b808201808211156114b5576114b56118d6565b600060018201611924576119246118d6565b5060010190565b634e487b7160e01b600052603160045260246000fd5b634e487b7160e01b600052604160045260246000fd5b6040516101a0810167ffffffffffffffff8111828210171561197b5761197b611941565b60405290565b604051601f8201601f1916810167ffffffffffffffff811182821017156119aa576119aa611941565b604052919050565b600067ffffffffffffffff8211156119cc576119cc611941565b5060051b60200190565b801515811461027257600080fd5b8035611798816119d6565b600082601f830112611a0057600080fd5b81356020611a15611a10836119b2565b611981565b82815260059290921b84018101918181019086841115611a3457600080fd5b8286015b84811015611a5657611a4981611824565b8352918301918301611a38565b509695505050505050565b600082601f830112611a7257600080fd5b81356020611a82611a10836119b2565b82815260059290921b84018101918181019086841115611aa157600080fd5b8286015b84811015611a565780358352918301918301611aa5565b60006020808385031215611acf57600080fd5b823567ffffffffffffffff80821115611ae757600080fd5b818501915085601f830112611afb57600080fd5b8135611b09611a10826119b2565b81815260059190911b83018401908481019088831115611b2857600080fd5b8585015b83811015611c5e57803585811115611b4357600080fd5b86016101a0818c03601f19011215611b5a57600080fd5b611b62611957565b888201358152611b7460408301611824565b898201526060820135604082015260808201356060820152611b9860a08301611824565b6080820152611ba960c08301611824565b60a0820152611bba60e08301611784565b60c0820152610100611bcd818401611784565b60e083015261012080840135828401526101409150818401358184015250610160611bf98185016119e4565b8284015261018091508184013589811115611c1357600080fd5b611c218f8d838801016119ef565b8285015250506101a083013588811115611c3a57600080fd5b611c488e8c83870101611a61565b9183019190915250845250918601918601611b2c565b5098975050505050505050565b600060208284031215611c7d57600080fd5b8151611c88816119d6565b9392505050565b600060208284031215611ca157600080fd5b5051919050565b80820281158282048414176114b5576114b56118d6565b600082611cdc57634e487b7160e01b600052601260045260246000fd5b500490565b600081518084526020808501945080840160005b83811015611d1a5781516001600160a01b031687529582019590820190600101611cf5565b509495945050505050565b600081518084526020808501945080840160005b83811015611d1a57815187529582019590820190600101611d39565b60006020808301818452808551808352604092508286019150828160051b87010184880160005b83811015611e6757603f19898403018552815180518452878101516001600160a01b039081168986015287820151888601526060808301519086015260808083015182169086015260a0808301519091169085015260c08082015163ffffffff9081169186019190915260e080830151909116908501526101008082015190850152610120808201519085015261014080820151151590850152610160808201516101a08287018190529190611e3483880182611ce1565b925050506101808083015192508582038187015250611e538183611d25565b968901969450505090860190600101611d7c565b509098975050505050505050565b63ffffffff8416815260006020848184015260606040840152835180606085015260005b81811015611eb557858101830151858201608001528201611e99565b506000608082860101526080601f19601f8301168501019250505094935050505056fea2646970667358221220088bac2e3765181219f39ffe61f6fb1f4160c0506af29e9daec67fb02e3816f364736f6c63430008140033",
    "linkReferences": {}
  },
  "methodIdentifiers": {
    "bridge(uint256,uint256,uint256,address,address,uint32,uint32,uint256,uint256)": "830055ae",
    "chains(uint256)": "550325b5",
    "defaultToBridge(uint256)": "4490899d",
    "handle(uint32,bytes32,bytes)": "56d5d475",
    "pendingIncomingOrders(uint256)": "2805f841",
    "removePendingOrder(uint256)": "5042b11a"
  },
  "id": 25
}