{
  "abi": [
    {
      "inputs": [
        {
          "internalType": "address",
          "name": "_selfKisser",
          "type": "address"
        },
        {
          "internalType": "address",
          "name": "_registry",
          "type": "address"
        },
        {
          "internalType": "uint32",
          "name": "_chainId",
          "type": "uint32"
        },
        {
          "internalType": "string",
          "name": "_base",
          "type": "string"
        },
        {
          "internalType": "string",
          "name": "_swarm",
          "type": "string"
        },
        {
          "internalType": "string[]",
          "name": "pairs",
          "type": "string[]"
        },
        {
          "internalType": "uint32[]",
          "name": "chains",
          "type": "uint32[]"
        },
        {
          "internalType": "address[]",
          "name": "tokens",
          "type": "address[]"
        },
        {
          "internalType": "address[]",
          "name": "oracles",
          "type": "address[]"
        }
      ],
      "stateMutability": "nonpayable",
      "type": "constructor"
    },
    {
      "anonymous": false,
      "inputs": [
        {
          "indexed": true,
          "internalType": "address",
          "name": "previousOwner",
          "type": "address"
        },
        {
          "indexed": true,
          "internalType": "address",
          "name": "newOwner",
          "type": "address"
        }
      ],
      "name": "OwnershipTransferred",
      "type": "event"
    },
    {
      "inputs": [],
      "name": "base",
      "outputs": [
        {
          "internalType": "string",
          "name": "",
          "type": "string"
        }
      ],
      "stateMutability": "view",
      "type": "function"
    },
    {
      "inputs": [],
      "name": "chainId",
      "outputs": [
        {
          "internalType": "uint32",
          "name": "",
          "type": "uint32"
        }
      ],
      "stateMutability": "view",
      "type": "function"
    },
    {
      "inputs": [
        {
          "internalType": "uint32",
          "name": "",
          "type": "uint32"
        },
        {
          "internalType": "string",
          "name": "",
          "type": "string"
        }
      ],
      "name": "enstoken",
      "outputs": [
        {
          "internalType": "address",
          "name": "",
          "type": "address"
        }
      ],
      "stateMutability": "view",
      "type": "function"
    },
    {
      "inputs": [
        {
          "internalType": "string",
          "name": "pair",
          "type": "string"
        },
        {
          "internalType": "uint32",
          "name": "chain",
          "type": "uint32"
        }
      ],
      "name": "getToken",
      "outputs": [
        {
          "internalType": "address",
          "name": "",
          "type": "address"
        }
      ],
      "stateMutability": "view",
      "type": "function"
    },
    {
      "inputs": [
        {
          "internalType": "string",
          "name": "pair",
          "type": "string"
        }
      ],
      "name": "namehash",
      "outputs": [
        {
          "internalType": "bytes32",
          "name": "node",
          "type": "bytes32"
        }
      ],
      "stateMutability": "view",
      "type": "function"
    },
    {
      "inputs": [],
      "name": "owner",
      "outputs": [
        {
          "internalType": "address",
          "name": "",
          "type": "address"
        }
      ],
      "stateMutability": "view",
      "type": "function"
    },
    {
      "inputs": [
        {
          "internalType": "string[]",
          "name": "pairs",
          "type": "string[]"
        }
      ],
      "name": "query",
      "outputs": [
        {
          "internalType": "uint256[]",
          "name": "prices",
          "type": "uint256[]"
        }
      ],
      "stateMutability": "view",
      "type": "function"
    },
    {
      "inputs": [],
      "name": "registry",
      "outputs": [
        {
          "internalType": "address",
          "name": "",
          "type": "address"
        }
      ],
      "stateMutability": "view",
      "type": "function"
    },
    {
      "inputs": [],
      "name": "renounceOwnership",
      "outputs": [],
      "stateMutability": "nonpayable",
      "type": "function"
    },
    {
      "inputs": [
        {
          "internalType": "address",
          "name": "_ens",
          "type": "address"
        }
      ],
      "name": "selfKiss",
      "outputs": [],
      "stateMutability": "nonpayable",
      "type": "function"
    },
    {
      "inputs": [],
      "name": "selfKisser",
      "outputs": [
        {
          "internalType": "address",
          "name": "",
          "type": "address"
        }
      ],
      "stateMutability": "view",
      "type": "function"
    },
    {
      "inputs": [
        {
          "internalType": "string",
          "name": "_base",
          "type": "string"
        }
      ],
      "name": "setBase",
      "outputs": [],
      "stateMutability": "nonpayable",
      "type": "function"
    },
    {
      "inputs": [
        {
          "internalType": "address",
          "name": "_registry",
          "type": "address"
        }
      ],
      "name": "setRegistry",
      "outputs": [],
      "stateMutability": "nonpayable",
      "type": "function"
    },
    {
      "inputs": [
        {
          "internalType": "address",
          "name": "_selfKisser",
          "type": "address"
        }
      ],
      "name": "setSelfKisser",
      "outputs": [],
      "stateMutability": "nonpayable",
      "type": "function"
    },
    {
      "inputs": [
        {
          "internalType": "string",
          "name": "_swarm",
          "type": "string"
        }
      ],
      "name": "setSwarm",
      "outputs": [],
      "stateMutability": "nonpayable",
      "type": "function"
    },
    {
      "inputs": [
        {
          "internalType": "string",
          "name": "pair",
          "type": "string"
        },
        {
          "internalType": "uint32",
          "name": "chain",
          "type": "uint32"
        },
        {
          "internalType": "address",
          "name": "token",
          "type": "address"
        }
      ],
      "name": "setToken",
      "outputs": [],
      "stateMutability": "nonpayable",
      "type": "function"
    },
    {
      "inputs": [
        {
          "internalType": "string[]",
          "name": "pairs",
          "type": "string[]"
        },
        {
          "internalType": "uint32[]",
          "name": "chains",
          "type": "uint32[]"
        },
        {
          "internalType": "address[]",
          "name": "tokens",
          "type": "address[]"
        }
      ],
      "name": "setTokens",
      "outputs": [],
      "stateMutability": "nonpayable",
      "type": "function"
    },
    {
      "inputs": [],
      "name": "swarm",
      "outputs": [
        {
          "internalType": "string",
          "name": "",
          "type": "string"
        }
      ],
      "stateMutability": "view",
      "type": "function"
    },
    {
      "inputs": [
        {
          "internalType": "address",
          "name": "newOwner",
          "type": "address"
        }
      ],
      "name": "transferOwnership",
      "outputs": [],
      "stateMutability": "nonpayable",
      "type": "function"
    }
  ],
  "bytecode": {
    "object": "0x60a06040523480156200001157600080fd5b5060405162001eaa38038062001eaa83398101604081905262000034916200065d565b6200003f33620000be565b600280546001600160a01b03808c166001600160a01b03199283161790925560038054928b169290911691909117905563ffffffff871660805260046200008787826200082e565b5060056200009686826200082e565b50620000a48484846200010e565b620000af8162000295565b50505050505050505062000996565b600080546001600160a01b038381166001600160a01b0319831681178455604051919092169283917f8be0079c531659141344cd1fd0a4f28419497f9722a3daafe3b4186f6b6457e09190a35050565b6200011862000354565b8051825184516200012a919062000910565b146200017d5760405162461bcd60e51b815260206004820152601f60248201527f4368726f6e69636c65526f757465723a20696e76616c6964206c656e6774680060448201526064015b60405180910390fd5b60005b82518110156200028f5760005b8451811015620002795782855183620001a7919062000910565b620001b3908362000930565b81518110620001c657620001c662000946565b602002602001015160016000868581518110620001e757620001e762000946565b602002602001015163ffffffff1663ffffffff1681526020019081526020016000208683815181106200021e576200021e62000946565b60200260200101516040516200023591906200095c565b90815260405190819003602001902080546001600160a01b03929092166001600160a01b03199092169190911790558062000270816200097a565b9150506200018d565b508062000286816200097a565b91505062000180565b50505050565b60005b8151811015620003505760025482516001600160a01b039091169063622920e790849084908110620002ce57620002ce62000946565b60209081029190910101516040516001600160e01b031960e084901b1681526001600160a01b039091166004820152306024820152604401600060405180830381600087803b1580156200032157600080fd5b505af115801562000336573d6000803e3d6000fd5b50505050808062000347906200097a565b91505062000298565b5050565b6000546001600160a01b03163314620003b05760405162461bcd60e51b815260206004820181905260248201527f4f776e61626c653a2063616c6c6572206973206e6f7420746865206f776e6572604482015260640162000174565b565b80516001600160a01b0381168114620003ca57600080fd5b919050565b805163ffffffff81168114620003ca57600080fd5b634e487b7160e01b600052604160045260246000fd5b604051601f8201601f191681016001600160401b0381118282101715620004255762000425620003e4565b604052919050565b60005b838110156200044a57818101518382015260200162000430565b50506000910152565b600082601f8301126200046557600080fd5b81516001600160401b03811115620004815762000481620003e4565b62000496601f8201601f1916602001620003fa565b818152846020838601011115620004ac57600080fd5b620004bf8260208301602087016200042d565b949350505050565b60006001600160401b03821115620004e357620004e3620003e4565b5060051b60200190565b600082601f830112620004ff57600080fd5b81516020620005186200051283620004c7565b620003fa565b82815260059290921b840181019181810190868411156200053857600080fd5b8286015b848110156200057c5780516001600160401b038111156200055d5760008081fd5b6200056d8986838b010162000453565b8452509183019183016200053c565b509695505050505050565b600082601f8301126200059957600080fd5b81516020620005ac6200051283620004c7565b82815260059290921b84018101918181019086841115620005cc57600080fd5b8286015b848110156200057c57620005e481620003cf565b8352918301918301620005d0565b600082601f8301126200060457600080fd5b81516020620006176200051283620004c7565b82815260059290921b840181019181810190868411156200063757600080fd5b8286015b848110156200057c576200064f81620003b2565b83529183019183016200063b565b60008060008060008060008060006101208a8c0312156200067d57600080fd5b620006888a620003b2565b98506200069860208b01620003b2565b9750620006a860408b01620003cf565b60608b01519097506001600160401b0380821115620006c657600080fd5b620006d48d838e0162000453565b975060808c0151915080821115620006eb57600080fd5b620006f98d838e0162000453565b965060a08c01519150808211156200071057600080fd5b6200071e8d838e01620004ed565b955060c08c01519150808211156200073557600080fd5b620007438d838e0162000587565b945060e08c01519150808211156200075a57600080fd5b620007688d838e01620005f2565b93506101008c01519150808211156200078057600080fd5b506200078f8c828d01620005f2565b9150509295985092959850929598565b600181811c90821680620007b457607f821691505b602082108103620007d557634e487b7160e01b600052602260045260246000fd5b50919050565b601f8211156200082957600081815260208120601f850160051c81016020861015620008045750805b601f850160051c820191505b81811015620008255782815560010162000810565b5050505b505050565b81516001600160401b038111156200084a576200084a620003e4565b62000862816200085b84546200079f565b84620007db565b602080601f8311600181146200089a5760008415620008815750858301515b600019600386901b1c1916600185901b17855562000825565b600085815260208120601f198616915b82811015620008cb57888601518255948401946001909101908401620008aa565b5085821015620008ea5787850151600019600388901b60f8161c191681555b5050505050600190811b01905550565b634e487b7160e01b600052601160045260246000fd5b80820281158282048414176200092a576200092a620008fa565b92915050565b808201808211156200092a576200092a620008fa565b634e487b7160e01b600052603260045260246000fd5b60008251620009708184602087016200042d565b9190910192915050565b6000600182016200098f576200098f620008fa565b5060010190565b6080516114f8620009b2600039600061025601526114f86000f3fe608060405234801561001057600080fd5b50600436106101215760003560e01c80638da5cb5b116100ad578063b284065911610071578063b2840659146102b3578063c529a679146102c6578063f2fde38b146102d9578063f3083614146102ec578063f380336c146102ff57600080fd5b80638da5cb5b146102385780639879ff79146102495780639a8a059214610251578063a91ee0dc1461028d578063abe265ed146102a057600080fd5b80635001f3b5116100f45780635001f3b5146101e0578063664aa26b146101f5578063715018a61461020a5780637b103999146102125780638463017e1461022557600080fd5b80630541cf9714610126578063098799621461014f57806332f929fc1461017057806341f63a491461019b575b600080fd5b610139610134366004610c68565b610312565b6040516101469190610cdc565b60405180910390f35b61016261015d366004610d68565b61050d565b604051908152602001610146565b600254610183906001600160a01b031681565b6040516001600160a01b039091168152602001610146565b6101836101a9366004610e77565b600160209081526000928352604090922081518083018401805192815290840192909301919091209152546001600160a01b031681565b6101e8610796565b6040516101469190610ee8565b610208610203366004610f1b565b610824565b005b61020861083c565b600354610183906001600160a01b031681565b610208610233366004610f6c565b610850565b6000546001600160a01b0316610183565b6101e861087a565b6102787f000000000000000000000000000000000000000000000000000000000000000081565b60405163ffffffff9091168152602001610146565b61020861029b366004610f6c565b610887565b6102086102ae366004610f1b565b6108b1565b6102086102c1366004610f90565b6108c5565b6102086102d4366004610f6c565b61092b565b6102086102e7366004610f6c565b610993565b6102086102fa3660046110ef565b610a11565b61018361030d3660046111e6565b610b77565b6060816001600160401b0381111561032c5761032c610dc2565b604051908082528060200260200182016040528015610355578160200160208202803683370190505b50905060005b8281101561050657600061038c85858481811061037a5761037a611239565b905060200281019061015d919061124f565b600354604051630178b8bf60e01b8152600481018390529192506000916001600160a01b0390911690630178b8bf90602401602060405180830381865afa1580156103db573d6000803e3d6000fd5b505050506040513d601f19601f820116820180604052508101906103ff9190611295565b604051631d9dabef60e11b8152600481018490529091506000906001600160a01b03831690633b3b57de90602401602060405180830381865afa15801561044a573d6000803e3d6000fd5b505050506040513d601f19601f8201168201806040525081019061046e9190611295565b9050806001600160a01b03166357de26a46040518163ffffffff1660e01b8152600401602060405180830381865afa1580156104ae573d6000803e3d6000fd5b505050506040513d601f19601f820116820180604052508101906104d291906112b2565b8585815181106104e4576104e4611239565b60200260200101818152505050505080806104fe906112e1565b91505061035b565b5092915050565b600081810361051e57506000610790565b60408051600380825260808201909252600091816020015b606081526020019060019003908161053657905050905083838080601f016020809104026020016040519081016040528093929190818152602001838380828437600092018290525085518694509092501515905061059757610597611239565b6020026020010181905250600580546105af906112fa565b80601f01602080910402602001604051908101604052809291908181526020018280546105db906112fa565b80156106285780601f106105fd57610100808354040283529160200191610628565b820191906000526020600020905b81548152906001019060200180831161060b57829003601f168201915b50505050508160018151811061064057610640611239565b602002602001018190525060048054610658906112fa565b80601f0160208091040260200160405190810160405280929190818152602001828054610684906112fa565b80156106d15780601f106106a6576101008083540402835291602001916106d1565b820191906000526020600020905b8154815290600101906020018083116106b457829003601f168201915b5050505050816002815181106106e9576106e9611239565b602090810291909101015260035b801561078d57828261070a600184611334565b8151811061071a5761071a611239565b60200260200101516040516020016107329190611347565b60405160208183030381529060405280519060200120604051602001610762929190918252602082015260400190565b604051602081830303815290604052805190602001209250808061078590611363565b9150506106f7565b50505b92915050565b600480546107a3906112fa565b80601f01602080910402602001604051908101604052809291908181526020018280546107cf906112fa565b801561081c5780601f106107f15761010080835404028352916020019161081c565b820191906000526020600020905b8154815290600101906020018083116107ff57829003601f168201915b505050505081565b61082c610bbe565b600461083882826113c9565b5050565b610844610bbe565b61084e6000610c18565b565b610858610bbe565b600280546001600160a01b0319166001600160a01b0392909216919091179055565b600580546107a3906112fa565b61088f610bbe565b600380546001600160a01b0319166001600160a01b0392909216919091179055565b6108b9610bbe565b600561083882826113c9565b6108cd610bbe565b63ffffffff82166000908152600160205260409081902090518291906108f69087908790611488565b90815260405190819003602001902080546001600160a01b03929092166001600160a01b031990921691909117905550505050565b60025460405163622920e760e01b81526001600160a01b0383811660048301523360248301529091169063622920e790604401600060405180830381600087803b15801561097857600080fd5b505af115801561098c573d6000803e3d6000fd5b5050505050565b61099b610bbe565b6001600160a01b038116610a055760405162461bcd60e51b815260206004820152602660248201527f4f776e61626c653a206e6577206f776e657220697320746865207a65726f206160448201526564647265737360d01b60648201526084015b60405180910390fd5b610a0e81610c18565b50565b610a19610bbe565b805182518451610a299190611498565b14610a765760405162461bcd60e51b815260206004820152601f60248201527f4368726f6e69636c65526f757465723a20696e76616c6964206c656e6774680060448201526064016109fc565b60005b8251811015610b715760005b8451811015610b5e5782855183610a9c9190611498565b610aa690836114af565b81518110610ab657610ab6611239565b602002602001015160016000868581518110610ad457610ad4611239565b602002602001015163ffffffff1663ffffffff168152602001908152602001600020868381518110610b0857610b08611239565b6020026020010151604051610b1d9190611347565b90815260405190819003602001902080546001600160a01b03929092166001600160a01b031990921691909117905580610b56816112e1565b915050610a85565b5080610b69816112e1565b915050610a79565b50505050565b63ffffffff81166000908152600160205260408082209051610b9c9086908690611488565b908152604051908190036020019020546001600160a01b031690509392505050565b6000546001600160a01b0316331461084e5760405162461bcd60e51b815260206004820181905260248201527f4f776e61626c653a2063616c6c6572206973206e6f7420746865206f776e657260448201526064016109fc565b600080546001600160a01b038381166001600160a01b0319831681178455604051919092169283917f8be0079c531659141344cd1fd0a4f28419497f9722a3daafe3b4186f6b6457e09190a35050565b60008060208385031215610c7b57600080fd5b82356001600160401b0380821115610c9257600080fd5b818501915085601f830112610ca657600080fd5b813581811115610cb557600080fd5b8660208260051b8501011115610cca57600080fd5b60209290920196919550909350505050565b6020808252825182820181905260009190848201906040850190845b81811015610d1457835183529284019291840191600101610cf8565b50909695505050505050565b60008083601f840112610d3257600080fd5b5081356001600160401b03811115610d4957600080fd5b602083019150836020828501011115610d6157600080fd5b9250929050565b60008060208385031215610d7b57600080fd5b82356001600160401b03811115610d9157600080fd5b610d9d85828601610d20565b90969095509350505050565b803563ffffffff81168114610dbd57600080fd5b919050565b634e487b7160e01b600052604160045260246000fd5b604051601f8201601f191681016001600160401b0381118282101715610e0057610e00610dc2565b604052919050565b600082601f830112610e1957600080fd5b81356001600160401b03811115610e3257610e32610dc2565b610e45601f8201601f1916602001610dd8565b818152846020838601011115610e5a57600080fd5b816020850160208301376000918101602001919091529392505050565b60008060408385031215610e8a57600080fd5b610e9383610da9565b915060208301356001600160401b03811115610eae57600080fd5b610eba85828601610e08565b9150509250929050565b60005b83811015610edf578181015183820152602001610ec7565b50506000910152565b6020815260008251806020840152610f07816040850160208701610ec4565b601f01601f19169190910160400192915050565b600060208284031215610f2d57600080fd5b81356001600160401b03811115610f4357600080fd5b610f4f84828501610e08565b949350505050565b6001600160a01b0381168114610a0e57600080fd5b600060208284031215610f7e57600080fd5b8135610f8981610f57565b9392505050565b60008060008060608587031215610fa657600080fd5b84356001600160401b03811115610fbc57600080fd5b610fc887828801610d20565b9095509350610fdb905060208601610da9565b91506040850135610feb81610f57565b939692955090935050565b60006001600160401b0382111561100f5761100f610dc2565b5060051b60200190565b600082601f83011261102a57600080fd5b8135602061103f61103a83610ff6565b610dd8565b82815260059290921b8401810191818101908684111561105e57600080fd5b8286015b848110156110805761107381610da9565b8352918301918301611062565b509695505050505050565b600082601f83011261109c57600080fd5b813560206110ac61103a83610ff6565b82815260059290921b840181019181810190868411156110cb57600080fd5b8286015b848110156110805780356110e281610f57565b83529183019183016110cf565b60008060006060848603121561110457600080fd5b83356001600160401b038082111561111b57600080fd5b818601915086601f83011261112f57600080fd5b8135602061113f61103a83610ff6565b82815260059290921b8401810191818101908a84111561115e57600080fd5b8286015b848110156111965780358681111561117a5760008081fd5b6111888d86838b0101610e08565b845250918301918301611162565b50975050870135925050808211156111ad57600080fd5b6111b987838801611019565b935060408601359150808211156111cf57600080fd5b506111dc8682870161108b565b9150509250925092565b6000806000604084860312156111fb57600080fd5b83356001600160401b0381111561121157600080fd5b61121d86828701610d20565b9094509250611230905060208501610da9565b90509250925092565b634e487b7160e01b600052603260045260246000fd5b6000808335601e1984360301811261126657600080fd5b8301803591506001600160401b0382111561128057600080fd5b602001915036819003821315610d6157600080fd5b6000602082840312156112a757600080fd5b8151610f8981610f57565b6000602082840312156112c457600080fd5b5051919050565b634e487b7160e01b600052601160045260246000fd5b6000600182016112f3576112f36112cb565b5060010190565b600181811c9082168061130e57607f821691505b60208210810361132e57634e487b7160e01b600052602260045260246000fd5b50919050565b81810381811115610790576107906112cb565b60008251611359818460208701610ec4565b9190910192915050565b600081611372576113726112cb565b506000190190565b601f8211156113c457600081815260208120601f850160051c810160208610156113a15750805b601f850160051c820191505b818110156113c0578281556001016113ad565b5050505b505050565b81516001600160401b038111156113e2576113e2610dc2565b6113f6816113f084546112fa565b8461137a565b602080601f83116001811461142b57600084156114135750858301515b600019600386901b1c1916600185901b1785556113c0565b600085815260208120601f198616915b8281101561145a5788860151825594840194600190910190840161143b565b50858210156114785787850151600019600388901b60f8161c191681555b5050505050600190811b01905550565b8183823760009101908152919050565b8082028115828204841417610790576107906112cb565b80820180821115610790576107906112cb56fea2646970667358221220b7f99a36e613291bdcf7d938ee9d106dc21f1ed372eb8cd67e013f540c15476c64736f6c63430008140033",
    "linkReferences": {}
  },
  "methodIdentifiers": {
    "base()": "5001f3b5",
    "chainId()": "9a8a0592",
    "enstoken(uint32,string)": "41f63a49",
    "getToken(string,uint32)": "f380336c",
    "namehash(string)": "09879962",
    "owner()": "8da5cb5b",
    "query(string[])": "0541cf97",
    "registry()": "7b103999",
    "renounceOwnership()": "715018a6",
    "selfKiss(address)": "c529a679",
    "selfKisser()": "32f929fc",
    "setBase(string)": "664aa26b",
    "setRegistry(address)": "a91ee0dc",
    "setSelfKisser(address)": "8463017e",
    "setSwarm(string)": "abe265ed",
    "setToken(string,uint32,address)": "b2840659",
    "setTokens(string[],uint32[],address[])": "f3083614",
    "swarm()": "9879ff79",
    "transferOwnership(address)": "f2fde38b"
  },
  "id": 70
}